{
  "contractName": "IdentityManager",
  "abi": [
    {
      "constant": true,
      "inputs": [],
      "name": "banquecount",
      "outputs": [
        {
          "name": "",
          "type": "uint256"
        }
      ],
      "payable": false,
      "stateMutability": "view",
      "type": "function",
      "signature": "0x4222c58c"
    },
    {
      "constant": true,
      "inputs": [],
      "name": "clientcount",
      "outputs": [
        {
          "name": "",
          "type": "uint256"
        }
      ],
      "payable": false,
      "stateMutability": "view",
      "type": "function",
      "signature": "0x76c73035"
    },
    {
      "constant": true,
      "inputs": [],
      "name": "regulateurcount",
      "outputs": [
        {
          "name": "",
          "type": "uint256"
        }
      ],
      "payable": false,
      "stateMutability": "view",
      "type": "function",
      "signature": "0xa7885586"
    },
    {
      "inputs": [],
      "payable": false,
      "stateMutability": "nonpayable",
      "type": "constructor",
      "signature": "constructor"
    },
    {
      "anonymous": false,
      "inputs": [
        {
          "indexed": false,
          "name": "idClient",
          "type": "uint256"
        },
        {
          "indexed": false,
          "name": "nom",
          "type": "string"
        },
        {
          "indexed": false,
          "name": "prenoms",
          "type": "string"
        },
        {
          "indexed": false,
          "name": "contact",
          "type": "string"
        },
        {
          "indexed": false,
          "name": "email",
          "type": "string"
        },
        {
          "indexed": false,
          "name": "genre",
          "type": "string"
        },
        {
          "indexed": false,
          "name": "adressepostale",
          "type": "string"
        },
        {
          "indexed": false,
          "name": "datenaissance",
          "type": "string"
        }
      ],
      "name": "createClientEvent",
      "type": "event",
      "signature": "0x3ad538198d5701a7f3eb0cd2cde885cb91c17e89ae421fb16913e3b13933b9af"
    },
    {
      "anonymous": false,
      "inputs": [
        {
          "indexed": false,
          "name": "idBanque",
          "type": "uint256"
        },
        {
          "indexed": false,
          "name": "raisonsociale",
          "type": "string"
        },
        {
          "indexed": false,
          "name": "numeroTVA",
          "type": "string"
        },
        {
          "indexed": false,
          "name": "adressepostale",
          "type": "string"
        }
      ],
      "name": "createBanqueEvent",
      "type": "event",
      "signature": "0xd369eba6dcadc25516a70a3c8b0fbc19382cf4e6f6a3c94c8bae7410660878d3"
    },
    {
      "anonymous": false,
      "inputs": [
        {
          "indexed": false,
          "name": "idRegulateur",
          "type": "uint256"
        },
        {
          "indexed": false,
          "name": "raisonsociale",
          "type": "string"
        },
        {
          "indexed": false,
          "name": "numeroTVA",
          "type": "string"
        },
        {
          "indexed": false,
          "name": "adressepostale",
          "type": "string"
        }
      ],
      "name": "createRegulateurEvent",
      "type": "event",
      "signature": "0xe8668d989d56be5c63add9110523c74308e3676e1894d2732b3b89de28d3fcfd"
    },
    {
      "constant": false,
      "inputs": [
        {
          "name": "nom",
          "type": "string"
        },
        {
          "name": "prenoms",
          "type": "string"
        },
        {
          "name": "contact",
          "type": "string"
        },
        {
          "name": "email",
          "type": "string"
        },
        {
          "name": "genre",
          "type": "string"
        },
        {
          "name": "adressepostale",
          "type": "string"
        },
        {
          "name": "datenaissance",
          "type": "string"
        }
      ],
      "name": "createClient",
      "outputs": [
        {
          "name": "",
          "type": "uint256"
        }
      ],
      "payable": false,
      "stateMutability": "nonpayable",
      "type": "function",
      "signature": "0xba920db8"
    },
    {
      "constant": true,
      "inputs": [
        {
          "name": "id",
          "type": "uint256"
        }
      ],
      "name": "getClientById",
      "outputs": [
        {
          "name": "idClient",
          "type": "uint256"
        },
        {
          "name": "nom",
          "type": "string"
        },
        {
          "name": "prenoms",
          "type": "string"
        },
        {
          "name": "contact",
          "type": "string"
        },
        {
          "name": "email",
          "type": "string"
        },
        {
          "name": "genre",
          "type": "string"
        },
        {
          "name": "adressepostale",
          "type": "string"
        },
        {
          "name": "datenaissance",
          "type": "string"
        }
      ],
      "payable": false,
      "stateMutability": "view",
      "type": "function",
      "signature": "0xe815f43f"
    },
    {
      "constant": false,
      "inputs": [
        {
          "name": "raisonsociale",
          "type": "string"
        },
        {
          "name": "numeroTVA",
          "type": "string"
        },
        {
          "name": "adressepostale",
          "type": "string"
        }
      ],
      "name": "createBanque",
      "outputs": [
        {
          "name": "",
          "type": "uint256"
        }
      ],
      "payable": false,
      "stateMutability": "nonpayable",
      "type": "function",
      "signature": "0xadd2a6fb"
    },
    {
      "constant": true,
      "inputs": [
        {
          "name": "id",
          "type": "uint256"
        }
      ],
      "name": "getBanqueById",
      "outputs": [
        {
          "name": "idBanque",
          "type": "uint256"
        },
        {
          "name": "raisonsociale",
          "type": "string"
        },
        {
          "name": "numeroTVA",
          "type": "string"
        },
        {
          "name": "adressepostale",
          "type": "string"
        }
      ],
      "payable": false,
      "stateMutability": "view",
      "type": "function",
      "signature": "0xca82c89e"
    },
    {
      "constant": false,
      "inputs": [
        {
          "name": "raisonsociale",
          "type": "string"
        },
        {
          "name": "numeroTVA",
          "type": "string"
        },
        {
          "name": "adressepostale",
          "type": "string"
        }
      ],
      "name": "createRegulateur",
      "outputs": [
        {
          "name": "",
          "type": "uint256"
        }
      ],
      "payable": false,
      "stateMutability": "nonpayable",
      "type": "function",
      "signature": "0x820e837c"
    },
    {
      "constant": true,
      "inputs": [
        {
          "name": "id",
          "type": "uint256"
        }
      ],
      "name": "getRegulateurById",
      "outputs": [
        {
          "name": "idRegulateur",
          "type": "uint256"
        },
        {
          "name": "raisonsociale",
          "type": "string"
        },
        {
          "name": "numeroTVA",
          "type": "string"
        },
        {
          "name": "adressepostale",
          "type": "string"
        }
      ],
      "payable": false,
      "stateMutability": "view",
      "type": "function",
      "signature": "0xf3a8580e"
    }
  ],
  "bytecode": "0x608060405234801561001057600080fd5b50612419806100206000396000f3fe608060405260043610610099576000357c0100000000000000000000000000000000000000000000000000000000900463ffffffff1680634222c58c1461009e57806376c73035146100c9578063820e837c146100f4578063a7885586146102fe578063add2a6fb14610329578063ba920db814610533578063ca82c89e14610999578063e815f43f14610b2c578063f3a8580e14610e6f575b600080fd5b3480156100aa57600080fd5b506100b3611002565b6040518082815260200191505060405180910390f35b3480156100d557600080fd5b506100de611008565b6040518082815260200191505060405180910390f35b34801561010057600080fd5b506102e86004803603606081101561011757600080fd5b810190808035906020019064010000000081111561013457600080fd5b82018360208201111561014657600080fd5b8035906020019184600183028401116401000000008311171561016857600080fd5b91908080601f016020809104026020016040519081016040528093929190818152602001838380828437600081840152601f19601f820116905080830192505050505050509192919290803590602001906401000000008111156101cb57600080fd5b8201836020820111156101dd57600080fd5b803590602001918460018302840111640100000000831117156101ff57600080fd5b91908080601f016020809104026020016040519081016040528093929190818152602001838380828437600081840152601f19601f8201169050808301925050505050505091929192908035906020019064010000000081111561026257600080fd5b82018360208201111561027457600080fd5b8035906020019184600183028401116401000000008311171561029657600080fd5b91908080601f016020809104026020016040519081016040528093929190818152602001838380828437600081840152601f19601f82011690508083019250505050505050919291929050505061100e565b6040518082815260200191505060405180910390f35b34801561030a57600080fd5b5061031361124b565b6040518082815260200191505060405180910390f35b34801561033557600080fd5b5061051d6004803603606081101561034c57600080fd5b810190808035906020019064010000000081111561036957600080fd5b82018360208201111561037b57600080fd5b8035906020019184600183028401116401000000008311171561039d57600080fd5b91908080601f016020809104026020016040519081016040528093929190818152602001838380828437600081840152601f19601f8201169050808301925050505050505091929192908035906020019064010000000081111561040057600080fd5b82018360208201111561041257600080fd5b8035906020019184600183028401116401000000008311171561043457600080fd5b91908080601f016020809104026020016040519081016040528093929190818152602001838380828437600081840152601f19601f8201169050808301925050505050505091929192908035906020019064010000000081111561049757600080fd5b8201836020820111156104a957600080fd5b803590602001918460018302840111640100000000831117156104cb57600080fd5b91908080601f016020809104026020016040519081016040528093929190818152602001838380828437600081840152601f19601f820116905080830192505050505050509192919290505050611251565b6040518082815260200191505060405180910390f35b34801561053f57600080fd5b50610983600480360360e081101561055657600080fd5b810190808035906020019064010000000081111561057357600080fd5b82018360208201111561058557600080fd5b803590602001918460018302840111640100000000831117156105a757600080fd5b91908080601f016020809104026020016040519081016040528093929190818152602001838380828437600081840152601f19601f8201169050808301925050505050505091929192908035906020019064010000000081111561060a57600080fd5b82018360208201111561061c57600080fd5b8035906020019184600183028401116401000000008311171561063e57600080fd5b91908080601f016020809104026020016040519081016040528093929190818152602001838380828437600081840152601f19601f820116905080830192505050505050509192919290803590602001906401000000008111156106a157600080fd5b8201836020820111156106b357600080fd5b803590602001918460018302840111640100000000831117156106d557600080fd5b91908080601f016020809104026020016040519081016040528093929190818152602001838380828437600081840152601f19601f8201169050808301925050505050505091929192908035906020019064010000000081111561073857600080fd5b82018360208201111561074a57600080fd5b8035906020019184600183028401116401000000008311171561076c57600080fd5b91908080601f016020809104026020016040519081016040528093929190818152602001838380828437600081840152601f19601f820116905080830192505050505050509192919290803590602001906401000000008111156107cf57600080fd5b8201836020820111156107e157600080fd5b8035906020019184600183028401116401000000008311171561080357600080fd5b91908080601f016020809104026020016040519081016040528093929190818152602001838380828437600081840152601f19601f8201169050808301925050505050505091929192908035906020019064010000000081111561086657600080fd5b82018360208201111561087857600080fd5b8035906020019184600183028401116401000000008311171561089a57600080fd5b91908080601f016020809104026020016040519081016040528093929190818152602001838380828437600081840152601f19601f820116905080830192505050505050509192919290803590602001906401000000008111156108fd57600080fd5b82018360208201111561090f57600080fd5b8035906020019184600183028401116401000000008311171561093157600080fd5b91908080601f016020809104026020016040519081016040528093929190818152602001838380828437600081840152601f19601f82011690508083019250505050505050919291929050505061148e565b6040518082815260200191505060405180910390f35b3480156109a557600080fd5b506109d2600480360360208110156109bc57600080fd5b810190808035906020019092919050505061190e565b60405180858152602001806020018060200180602001848103845287818151815260200191508051906020019080838360005b83811015610a20578082015181840152602081019050610a05565b50505050905090810190601f168015610a4d5780820380516001836020036101000a031916815260200191505b50848103835286818151815260200191508051906020019080838360005b83811015610a86578082015181840152602081019050610a6b565b50505050905090810190601f168015610ab35780820380516001836020036101000a031916815260200191505b50848103825285818151815260200191508051906020019080838360005b83811015610aec578082015181840152602081019050610ad1565b50505050905090810190601f168015610b195780820380516001836020036101000a031916815260200191505b5097505050505050505060405180910390f35b348015610b3857600080fd5b50610b6560048036036020811015610b4f57600080fd5b8101908080359060200190929190505050611b5b565b604051808981526020018060200180602001806020018060200180602001806020018060200188810388528f818151815260200191508051906020019080838360005b83811015610bc3578082015181840152602081019050610ba8565b50505050905090810190601f168015610bf05780820380516001836020036101000a031916815260200191505b5088810387528e818151815260200191508051906020019080838360005b83811015610c29578082015181840152602081019050610c0e565b50505050905090810190601f168015610c565780820380516001836020036101000a031916815260200191505b5088810386528d818151815260200191508051906020019080838360005b83811015610c8f578082015181840152602081019050610c74565b50505050905090810190601f168015610cbc5780820380516001836020036101000a031916815260200191505b5088810385528c818151815260200191508051906020019080838360005b83811015610cf5578082015181840152602081019050610cda565b50505050905090810190601f168015610d225780820380516001836020036101000a031916815260200191505b5088810384528b818151815260200191508051906020019080838360005b83811015610d5b578082015181840152602081019050610d40565b50505050905090810190601f168015610d885780820380516001836020036101000a031916815260200191505b5088810383528a818151815260200191508051906020019080838360005b83811015610dc1578082015181840152602081019050610da6565b50505050905090810190601f168015610dee5780820380516001836020036101000a031916815260200191505b50888103825289818151815260200191508051906020019080838360005b83811015610e27578082015181840152602081019050610e0c565b50505050905090810190601f168015610e545780820380516001836020036101000a031916815260200191505b509f5050505050505050505050505050505060405180910390f35b348015610e7b57600080fd5b50610ea860048036036020811015610e9257600080fd5b8101908080359060200190929190505050612063565b60405180858152602001806020018060200180602001848103845287818151815260200191508051906020019080838360005b83811015610ef6578082015181840152602081019050610edb565b50505050905090810190601f168015610f235780820380516001836020036101000a031916815260200191505b50848103835286818151815260200191508051906020019080838360005b83811015610f5c578082015181840152602081019050610f41565b50505050905090810190601f168015610f895780820380516001836020036101000a031916815260200191505b50848103825285818151815260200191508051906020019080838360005b83811015610fc2578082015181840152602081019050610fa7565b50505050905090810190601f168015610fef5780820380516001836020036101000a031916815260200191505b5097505050505050505060405180910390f35b60015481565b60005481565b60006002600081548092919060010191905055506080604051908101604052806002548152602001858152602001848152602001838152506005600060025481526020019081526020016000206000820151816000015560208201518160010190805190602001906110819291906122b0565b50604082015181600201908051906020019061109e9291906122b0565b5060608201518160030190805190602001906110bb9291906122b0565b509050507fe8668d989d56be5c63add9110523c74308e3676e1894d2732b3b89de28d3fcfd60025485858560405180858152602001806020018060200180602001848103845287818151815260200191508051906020019080838360005b83811015611134578082015181840152602081019050611119565b50505050905090810190601f1680156111615780820380516001836020036101000a031916815260200191505b50848103835286818151815260200191508051906020019080838360005b8381101561119a57808201518184015260208101905061117f565b50505050905090810190601f1680156111c75780820380516001836020036101000a031916815260200191505b50848103825285818151815260200191508051906020019080838360005b838110156112005780820151818401526020810190506111e5565b50505050905090810190601f16801561122d5780820380516001836020036101000a031916815260200191505b5097505050505050505060405180910390a160025490509392505050565b60025481565b60006001600081548092919060010191905055506080604051908101604052806001548152602001858152602001848152602001838152506004600060015481526020019081526020016000206000820151816000015560208201518160010190805190602001906112c49291906122b0565b5060408201518160020190805190602001906112e19291906122b0565b5060608201518160030190805190602001906112fe9291906122b0565b509050507fd369eba6dcadc25516a70a3c8b0fbc19382cf4e6f6a3c94c8bae7410660878d360015485858560405180858152602001806020018060200180602001848103845287818151815260200191508051906020019080838360005b8381101561137757808201518184015260208101905061135c565b50505050905090810190601f1680156113a45780820380516001836020036101000a031916815260200191505b50848103835286818151815260200191508051906020019080838360005b838110156113dd5780820151818401526020810190506113c2565b50505050905090810190601f16801561140a5780820380516001836020036101000a031916815260200191505b50848103825285818151815260200191508051906020019080838360005b83811015611443578082015181840152602081019050611428565b50505050905090810190601f1680156114705780820380516001836020036101000a031916815260200191505b5097505050505050505060405180910390a160015490509392505050565b600080600081548092919060010191905055506101006040519081016040528060005481526020018981526020018881526020018781526020018681526020018581526020018481526020018381525060036000805481526020019081526020016000206000820151816000015560208201518160010190805190602001906115189291906122b0565b5060408201518160020190805190602001906115359291906122b0565b5060608201518160030190805190602001906115529291906122b0565b50608082015181600401908051906020019061156f9291906122b0565b5060a082015181600501908051906020019061158c9291906122b0565b5060c08201518160060190805190602001906115a99291906122b0565b5060e08201518160070190805190602001906115c69291906122b0565b509050507f3ad538198d5701a7f3eb0cd2cde885cb91c17e89ae421fb16913e3b13933b9af60005489898989898989604051808981526020018060200180602001806020018060200180602001806020018060200188810388528f818151815260200191508051906020019080838360005b83811015611653578082015181840152602081019050611638565b50505050905090810190601f1680156116805780820380516001836020036101000a031916815260200191505b5088810387528e818151815260200191508051906020019080838360005b838110156116b957808201518184015260208101905061169e565b50505050905090810190601f1680156116e65780820380516001836020036101000a031916815260200191505b5088810386528d818151815260200191508051906020019080838360005b8381101561171f578082015181840152602081019050611704565b50505050905090810190601f16801561174c5780820380516001836020036101000a031916815260200191505b5088810385528c818151815260200191508051906020019080838360005b8381101561178557808201518184015260208101905061176a565b50505050905090810190601f1680156117b25780820380516001836020036101000a031916815260200191505b5088810384528b818151815260200191508051906020019080838360005b838110156117eb5780820151818401526020810190506117d0565b50505050905090810190601f1680156118185780820380516001836020036101000a031916815260200191505b5088810383528a818151815260200191508051906020019080838360005b83811015611851578082015181840152602081019050611836565b50505050905090810190601f16801561187e5780820380516001836020036101000a031916815260200191505b50888103825289818151815260200191508051906020019080838360005b838110156118b757808201518184015260208101905061189c565b50505050905090810190601f1680156118e45780820380516001836020036101000a031916815260200191505b509f5050505050505050505050505050505060405180910390a16000549050979650505050505050565b6000606080606061191d612330565b600460008781526020019081526020016000206080604051908101604052908160008201548152602001600182018054600181600116156101000203166002900480601f0160208091040260200160405190810160405280929190818152602001828054600181600116156101000203166002900480156119df5780601f106119b4576101008083540402835291602001916119df565b820191906000526020600020905b8154815290600101906020018083116119c257829003601f168201915b50505050508152602001600282018054600181600116156101000203166002900480601f016020809104026020016040519081016040528092919081815260200182805460018160011615610100020316600290048015611a815780601f10611a5657610100808354040283529160200191611a81565b820191906000526020600020905b815481529060010190602001808311611a6457829003601f168201915b50505050508152602001600382018054600181600116156101000203166002900480601f016020809104026020016040519081016040528092919081815260200182805460018160011615610100020316600290048015611b235780601f10611af857610100808354040283529160200191611b23565b820191906000526020600020905b815481529060010190602001808311611b0657829003601f168201915b505050505081525050905080600001518160200151826040015183606001518292508191508090509450945094509450509193509193565b60006060806060806060806060611b70612359565b600360008b8152602001908152602001600020610100604051908101604052908160008201548152602001600182018054600181600116156101000203166002900480601f016020809104026020016040519081016040528092919081815260200182805460018160011615610100020316600290048015611c335780601f10611c0857610100808354040283529160200191611c33565b820191906000526020600020905b815481529060010190602001808311611c1657829003601f168201915b50505050508152602001600282018054600181600116156101000203166002900480601f016020809104026020016040519081016040528092919081815260200182805460018160011615610100020316600290048015611cd55780601f10611caa57610100808354040283529160200191611cd5565b820191906000526020600020905b815481529060010190602001808311611cb857829003601f168201915b50505050508152602001600382018054600181600116156101000203166002900480601f016020809104026020016040519081016040528092919081815260200182805460018160011615610100020316600290048015611d775780601f10611d4c57610100808354040283529160200191611d77565b820191906000526020600020905b815481529060010190602001808311611d5a57829003601f168201915b50505050508152602001600482018054600181600116156101000203166002900480601f016020809104026020016040519081016040528092919081815260200182805460018160011615610100020316600290048015611e195780601f10611dee57610100808354040283529160200191611e19565b820191906000526020600020905b815481529060010190602001808311611dfc57829003601f168201915b50505050508152602001600582018054600181600116156101000203166002900480601f016020809104026020016040519081016040528092919081815260200182805460018160011615610100020316600290048015611ebb5780601f10611e9057610100808354040283529160200191611ebb565b820191906000526020600020905b815481529060010190602001808311611e9e57829003601f168201915b50505050508152602001600682018054600181600116156101000203166002900480601f016020809104026020016040519081016040528092919081815260200182805460018160011615610100020316600290048015611f5d5780601f10611f3257610100808354040283529160200191611f5d565b820191906000526020600020905b815481529060010190602001808311611f4057829003601f168201915b50505050508152602001600782018054600181600116156101000203166002900480601f016020809104026020016040519081016040528092919081815260200182805460018160011615610100020316600290048015611fff5780601f10611fd457610100808354040283529160200191611fff565b820191906000526020600020905b815481529060010190602001808311611fe257829003601f168201915b5050505050815250509050806000015181602001518260400151836060015184608001518560a001518660c001518760e001518696508595508494508393508292508191508090509850985098509850985098509850985050919395975091939597565b6000606080606061207261239f565b600560008781526020019081526020016000206080604051908101604052908160008201548152602001600182018054600181600116156101000203166002900480601f0160208091040260200160405190810160405280929190818152602001828054600181600116156101000203166002900480156121345780601f1061210957610100808354040283529160200191612134565b820191906000526020600020905b81548152906001019060200180831161211757829003601f168201915b50505050508152602001600282018054600181600116156101000203166002900480601f0160208091040260200160405190810160405280929190818152602001828054600181600116156101000203166002900480156121d65780601f106121ab576101008083540402835291602001916121d6565b820191906000526020600020905b8154815290600101906020018083116121b957829003601f168201915b50505050508152602001600382018054600181600116156101000203166002900480601f0160208091040260200160405190810160405280929190818152602001828054600181600116156101000203166002900480156122785780601f1061224d57610100808354040283529160200191612278565b820191906000526020600020905b81548152906001019060200180831161225b57829003601f168201915b505050505081525050905080600001518160200151826040015183606001518292508191508090509450945094509450509193509193565b828054600181600116156101000203166002900490600052602060002090601f016020900481019282601f106122f157805160ff191683800117855561231f565b8280016001018555821561231f579182015b8281111561231e578251825591602001919060010190612303565b5b50905061232c91906123c8565b5090565b608060405190810160405280600081526020016060815260200160608152602001606081525090565b6101006040519081016040528060008152602001606081526020016060815260200160608152602001606081526020016060815260200160608152602001606081525090565b608060405190810160405280600081526020016060815260200160608152602001606081525090565b6123ea91905b808211156123e65760008160009055506001016123ce565b5090565b9056fea165627a7a72305820e2e41421a677dc77e03940b8c7566125948197a94ad573a184d4fad8d68148e60029",
  "source": "pragma solidity >=0.4.0 <0.6.0;\r\n\r\ncontract IdentityManager {\r\n\r\n  uint public clientcount;\r\n  uint public banquecount;\r\n  uint public regulateurcount;\r\n\r\n  struct Client {\r\n    uint idClient;\r\n    string nom;\r\n    string prenoms;\r\n    string contact;\r\n    string email;\r\n    string genre;\r\n    string adressepostale;\r\n    string datenaissance;\r\n\r\n  }\r\n\r\n  struct Banque {\r\n    uint idBanque;\r\n    string raisonsociale;\r\n    string numeroTVA;\r\n    string adressepostale;\r\n  }\r\n\r\n  struct Regulateur {\r\n    uint idRegulateur;\r\n    string raisonsociale;\r\n    string numeroTVA;\r\n    string adressepostale;\r\n  }\r\n\r\n  constructor() public {\r\n\r\n  }\r\n\r\n  mapping (uint => Client) clients;\r\n  mapping (uint => Banque) banques;\r\n  mapping (uint => Regulateur) regulateurs;\r\n\r\n  event createClientEvent(uint idClient, string nom, string prenoms, string contact, string email, string genre, string adressepostale, string datenaissance);\r\n  event createBanqueEvent(uint idBanque, string raisonsociale, string numeroTVA, string adressepostale);\r\n  event createRegulateurEvent(uint idRegulateur,string raisonsociale, string numeroTVA, string adressepostale);\r\n\r\n  function createClient(string memory nom, string memory prenoms, string memory contact, string memory email, string memory genre, string memory adressepostale, string memory datenaissance)\r\n  public returns(uint) {\r\n      clientcount++;\r\n      clients[clientcount] = Client(clientcount, nom, prenoms, contact, email, genre, adressepostale, datenaissance);\r\n      emit createClientEvent(clientcount, nom, prenoms, contact, email, genre, adressepostale, datenaissance);\r\n      return clientcount;\r\n  }\r\n\r\n  function getClientById(uint id) public view returns (uint idClient, string memory nom, string memory prenoms, string memory contact, string memory email, string memory genre, string memory adressepostale, string memory datenaissance){\r\n    Client memory c = clients[id];\r\n    return (c.idClient, c.nom, c.prenoms, c.contact, c.email, c.genre, c.adressepostale, c.datenaissance);\r\n  }\r\n\r\n\r\n  function createBanque(string memory raisonsociale, string memory numeroTVA, string memory adressepostale)\r\n  public returns(uint) {\r\n      banquecount++;\r\n      banques[banquecount] = Banque(banquecount, raisonsociale, numeroTVA, adressepostale);\r\n      emit createBanqueEvent(banquecount, raisonsociale, numeroTVA, adressepostale);\r\n      return banquecount;\r\n  }\r\n\r\n  function getBanqueById(uint id) public view returns (uint idBanque, string memory raisonsociale, string memory numeroTVA, string memory adressepostale){\r\n    Banque memory b = banques[id];\r\n    return (b.idBanque, b.raisonsociale, b.numeroTVA, b.adressepostale);\r\n  }\r\n\r\n  function createRegulateur(string memory raisonsociale, string memory numeroTVA, string memory adressepostale)\r\n  public returns(uint) {\r\n      regulateurcount++;\r\n      regulateurs[regulateurcount] = Regulateur(regulateurcount, raisonsociale, numeroTVA, adressepostale);\r\n      emit createRegulateurEvent(regulateurcount, raisonsociale, numeroTVA, adressepostale);\r\n      return regulateurcount;\r\n  }\r\n\r\n  function getRegulateurById(uint id) public view returns (uint idRegulateur,string memory raisonsociale, string memory numeroTVA, string memory adressepostale){\r\n    Regulateur memory r = regulateurs[id];\r\n    return (r.idRegulateur, r.raisonsociale, r.numeroTVA, r.adressepostale);\r\n  }\r\n\r\n}\r\n",
  "sourcePath": "C:/Users/HP/Documents/Amaris/Blockchain/POC/kyc/contracts/IdentityManager.sol",
  "compiler": {
    "name": "solc",
    "version": "0.5.0+commit.1d4f565a.Emscripten.clang"
  },
  "schemaVersion": "3.0.1",
  "updatedAt": "2019-04-23T14:47:21.373Z",
  "devdoc": {
    "methods": {}
  },
  "userdoc": {
    "methods": {}
  }
}